{
  "_format": "hh-sol-artifact-1",
  "contractName": "HelloWorld",
  "sourceName": "contracts/HelloWorld.sol",
  "abi": [
    {
      "inputs": [
        {
          "internalType": "string",
          "name": "init_message",
          "type": "string"
        }
      ],
      "stateMutability": "nonpayable",
      "type": "constructor"
    },
    {
      "inputs": [],
      "name": "message",
      "outputs": [
        {
          "internalType": "string",
          "name": "",
          "type": "string"
        }
      ],
      "stateMutability": "view",
      "type": "function"
    },
    {
      "inputs": [],
      "name": "sayMessage",
      "outputs": [
        {
          "internalType": "string",
          "name": "",
          "type": "string"
        }
      ],
      "stateMutability": "view",
      "type": "function"
    },
    {
      "inputs": [
        {
          "internalType": "string",
          "name": "new_message",
          "type": "string"
        }
      ],
      "name": "setMessage",
      "outputs": [],
      "stateMutability": "payable",
      "type": "function"
    }
  ],
  "bytecode": "0x608060405234801561001057600080fd5b50604051610c5b380380610c5b833981810160405281019061003291906101bd565b80600090816100419190610427565b50506104f9565b6000604051905090565b600080fd5b600080fd5b600080fd5b600080fd5b6000601f19601f8301169050919050565b7f4e487b7100000000000000000000000000000000000000000000000000000000600052604160045260246000fd5b6100af82610066565b810181811067ffffffffffffffff821117156100ce576100cd610077565b5b80604052505050565b60006100e1610048565b90506100ed82826100a6565b919050565b600067ffffffffffffffff82111561010d5761010c610077565b5b61011682610066565b9050602081019050919050565b60005b83811015610141578082015181840152602081019050610126565b60008484015250505050565b600061016061015b846100f2565b6100d7565b90508281526020810184848401111561017c5761017b610061565b5b610187848285610123565b509392505050565b600082601f8301126101a4576101a361005c565b5b81516101b484826020860161014d565b91505092915050565b6000602082840312156101d3576101d2610052565b5b600082015167ffffffffffffffff8111156101f1576101f0610057565b5b6101fd8482850161018f565b91505092915050565b600081519050919050565b7f4e487b7100000000000000000000000000000000000000000000000000000000600052602260045260246000fd5b6000600282049050600182168061025857607f821691505b60208210810361026b5761026a610211565b5b50919050565b60008190508160005260206000209050919050565b60006020601f8301049050919050565b600082821b905092915050565b6000600883026102d37fffffffffffffffffffffffffffffffffffffffffffffffffffffffffffffffff82610296565b6102dd8683610296565b95508019841693508086168417925050509392505050565b6000819050919050565b6000819050919050565b600061032461031f61031a846102f5565b6102ff565b6102f5565b9050919050565b6000819050919050565b61033e83610309565b61035261034a8261032b565b8484546102a3565b825550505050565b600090565b61036761035a565b610372818484610335565b505050565b5b818110156103965761038b60008261035f565b600181019050610378565b5050565b601f8211156103db576103ac81610271565b6103b584610286565b810160208510156103c4578190505b6103d86103d085610286565b830182610377565b50505b505050565b600082821c905092915050565b60006103fe600019846008026103e0565b1980831691505092915050565b600061041783836103ed565b9150826002028217905092915050565b61043082610206565b67ffffffffffffffff81111561044957610448610077565b5b6104538254610240565b61045e82828561039a565b600060209050601f831160018114610491576000841561047f578287015190505b610489858261040b565b8655506104f1565b601f19841661049f86610271565b60005b828110156104c7578489015182556001820191506020850194506020810190506104a2565b868310156104e457848901516104e0601f8916826103ed565b8355505b6001600288020188555050505b505050505050565b610753806105086000396000f3fe6080604052600436106100345760003560e01c8063368b877214610039578063e21f37ce14610055578063fc4a028714610080575b600080fd5b610053600480360381019061004e919061034b565b6100ab565b005b34801561006157600080fd5b5061006a6100d1565b6040516100779190610413565b60405180910390f35b34801561008c57600080fd5b5061009561015f565b6040516100a29190610413565b60405180910390f35b662386f26fc1000034116100be57600080fd5b80600090816100cd919061064b565b5050565b600080546100de90610464565b80601f016020809104026020016040519081016040528092919081815260200182805461010a90610464565b80156101575780601f1061012c57610100808354040283529160200191610157565b820191906000526020600020905b81548152906001019060200180831161013a57829003601f168201915b505050505081565b60606000805461016e90610464565b80601f016020809104026020016040519081016040528092919081815260200182805461019a90610464565b80156101e75780601f106101bc576101008083540402835291602001916101e7565b820191906000526020600020905b8154815290600101906020018083116101ca57829003601f168201915b5050505050905090565b6000604051905090565b600080fd5b600080fd5b600080fd5b600080fd5b6000601f19601f8301169050919050565b7f4e487b7100000000000000000000000000000000000000000000000000000000600052604160045260246000fd5b6102588261020f565b810181811067ffffffffffffffff8211171561027757610276610220565b5b80604052505050565b600061028a6101f1565b9050610296828261024f565b919050565b600067ffffffffffffffff8211156102b6576102b5610220565b5b6102bf8261020f565b9050602081019050919050565b82818337600083830152505050565b60006102ee6102e98461029b565b610280565b90508281526020810184848401111561030a5761030961020a565b5b6103158482856102cc565b509392505050565b600082601f83011261033257610331610205565b5b81356103428482602086016102db565b91505092915050565b600060208284031215610361576103606101fb565b5b600082013567ffffffffffffffff81111561037f5761037e610200565b5b61038b8482850161031d565b91505092915050565b600081519050919050565b600082825260208201905092915050565b60005b838110156103ce5780820151818401526020810190506103b3565b60008484015250505050565b60006103e582610394565b6103ef818561039f565b93506103ff8185602086016103b0565b6104088161020f565b840191505092915050565b6000602082019050818103600083015261042d81846103da565b905092915050565b7f4e487b7100000000000000000000000000000000000000000000000000000000600052602260045260246000fd5b6000600282049050600182168061047c57607f821691505b60208210810361048f5761048e610435565b5b50919050565b60008190508160005260206000209050919050565b60006020601f8301049050919050565b600082821b905092915050565b6000600883026104f77fffffffffffffffffffffffffffffffffffffffffffffffffffffffffffffffff826104ba565b61050186836104ba565b95508019841693508086168417925050509392505050565b6000819050919050565b6000819050919050565b600061054861054361053e84610519565b610523565b610519565b9050919050565b6000819050919050565b6105628361052d565b61057661056e8261054f565b8484546104c7565b825550505050565b600090565b61058b61057e565b610596818484610559565b505050565b5b818110156105ba576105af600082610583565b60018101905061059c565b5050565b601f8211156105ff576105d081610495565b6105d9846104aa565b810160208510156105e8578190505b6105fc6105f4856104aa565b83018261059b565b50505b505050565b600082821c905092915050565b600061062260001984600802610604565b1980831691505092915050565b600061063b8383610611565b9150826002028217905092915050565b61065482610394565b67ffffffffffffffff81111561066d5761066c610220565b5b6106778254610464565b6106828282856105be565b600060209050601f8311600181146106b557600084156106a3578287015190505b6106ad858261062f565b865550610715565b601f1984166106c386610495565b60005b828110156106eb578489015182556001820191506020850194506020810190506106c6565b868310156107085784890151610704601f891682610611565b8355505b6001600288020188555050505b50505050505056fea26469706673582212204817569f1e0c244ff49f3253ab20a28b46fcf714c5613fbec6d36bbeda7d1a4c64736f6c634300081c0033",
  "linkReferences": {},
  "deployedLinkReferences": {}
}